:0F00000080001208A7782074FF120B9E12081FB1
:0F000F001205F21206421208D412088812057662
:0F001E001205241205DB1205C51207C3B44217E1
:0F002D001209BF900EB5120B2C120B8E1209BFC9
:0E003C001200C412017280D4B444171209BF1E
:0F004A00900EC4120B2C120B8E1209BF1201A0C4
:0E00590012021B80BAB445171209BF900ED3D5
:0F006700120B2C120B8E1209BF1203241203600E
:0E00760080A0B446171209BF900EE2120B2CA8
:0E008400120B8E1209BF1204141204A98086FA
:0F009200B431121209BF900C1F120B2C120B8EDF
:0F00A1001209BF02000FB431151209BF900EF102
:0F00B000120B2C120B8E1209BF02074802001808
:0E00BF0002001B80FE1209BF900CA4120B2C35
:1000CD00900C73120A1A120B2C120A67120AF0E91D
:0F00DD00FA120AF0E9FB900DB8120A86120B2CEA
:0F00EC00120754B441030200FBB444EB0200C4FA
:0F00FB001209BF900C93120B2C900C73120A1A5F
:10010A00120B2C120A67120AF0E9FC120AF0E9FD36
:0F011A00900DB8120A86120B2C120754B4410331
:0F012900020132B444EB0200FBBD0005BC000232
:0E01380080C11209BF900CB7120B2C900C73F3
:0E014600120A1A120B2C120A67120AF0E9FEB6
:0E015400120AF0E9FF900DB8120A86120B2C69
:10016200120754B44103020171B444EB02013A2272
:0F017200C2B08A838B82E08E838F82F00B0F1DC9
:0F018100BB00010ABF00010EBDFF011CBC00E462
:10019000BD00E11209BF900CC9120B2C120B8E226C
:0F01A0001209BF900CA4120B2C900C73120A1AA8
:1001AF00120B2C120A67120AF0E9FC120AF0E9FD91
:0F01BF00900DB8120A86120B2C120754B441038C
:0F01CE000201D7B444EB0201A01209BF900C93B9
:0F01DD00120B2C900C73120A1A120B2C120A67B9
:1001EC00120AF0E9FA120AF0E9FB900DB8120A862D
:0F01FC00120B2C120754B4410302020EB444EB51
:10020B000201D7BA0006BB00030201D71209BF22B5
:0F021B00C2B07E007F0078008C838D82E0F5F00A
:0F022A0054F003030303F9C3940A5008E9443066
:0F023900120B7B8008E944302407120B7BE5F0A1
:10024800540FF9C3940A5008E94430120B7B800814
:10025800E944302407120B7B7420120B7B080D0F26
:0F026800BD00010C1BBBFF011ABA0006BB00034F
:10027700020285B806A6120A1A7800BF0C9E8C8364
:0F0287008D82C083C082900D85120A50120B2CFD
:10029600900D8F120A86120B2CD082D0831207542F
:0F02A600B43203020304B43009BA000FBB000CDA
:1002B5000202A3B431E8BE000C0202A31209BF0E6C
:1002C5007F000202231209BF78001EEBC32F4008EE
:1002D500C3240C4009FB80080A240CFB80020AFB9E
:1002E500EDC3940C400AC39F400EFD7F000202231C
:1002F5001C9FFD7F000202231CFD7F0002022322BA
:10030500120AC47428120B7B8C83EC1205848D822F
:0F031500ED1205847468120B7B7429120B7B2286
:0F0324001209BF900CD8120B2C900C73120A1AEE
:10033300120B2C120A67120AF0E9F583FB120AF07A
:10034300E9F582FC900DB8120A86120B2C120754A1
:0F035300B4410302035FB444EB02032422C2B09F
:100362001209BF7428120B7B8B83EB1205848C82DB
:10037200EC1205847468120B7B7429120B7B743A9D
:10038200120B7B7420120B7B120B37120A1AC083DA
:0E039200C082900CFC120B2C900C84120A50AE
:1003A000120B2C120AA5D082D083120AF0E98B839B
:0F03B0008C82F01209BF7428120B7B8B83E583BC
:0F03BF001205848C82E5821205847468120B7B10
:0F03CE007429120B7B743A120B7B7420120B7B79
:0E03DD00120B377468120B7B120A1A900D1F58
:0F03EB00120B2C120A50900D2D120B2C120754CE
:0E03FA00B4310B900D101209BF120B2C800BAA
:0F040800B430EC0CBC00010B020360221209BFE0
:0F041700900CD8120B2C900C73120A1A120B2C8B
:10042600120A67120AF0E9FA120AF0E9FB900DB80F
:0F043600120A86120B2C120754B4410302044B16
:0F044500B444EB0204141209BF900CEB120B2C01
:10045400900C73120A1A120B2C120A67120AF0E992
:0F046400FC120AF0E9FD900DB8120A86120B2C5B
:0F047300120754B44103020482B444EB02044B59
:0F048200BD0006BC000302044B1209BF900D36EB
:0F049100120B2C900C84120A1A120B2C120A67F1
:1004A000120AF0E9FE1209BF22C2B08A838B82E0F1
:1004B000C39E6021BC0011BD000E900D59120B2C83
:0E04C000120B8E120B8E80430BBB00010A1D27
:0E04CE00BDFF011C0204A9C083C082900D4A2C
:0F04DC00120B2CD082D083120A1A7428120B7BB9
:0F04EB00E583120584E5821205847468120B7B89
:0E04FA007429120B7B120B8E120B8E120B8EBE
:0F050800120B8E22C000D2B07820747F120B9E8F
:0F051700120BD474FF120B9ED000C2B022C00092
:0F052600C0E01209EC784512096F4430120B7BCC
:0F053500784412096F4430120B7B743A120B7B1F
:0F054400784312096F4430120B7B784212096F13
:0F0553004430120B7B743A120B7B784112096F04
:0F0562004430120B7B784012096F4430120B7B30
:10057100D0E0D00022C0007810D2B0E29409C2B01D
:10058100D00022C0E0C001F5F054F003030303FFE3
:10059100C3940A5008EF4430120B7B8008EF4430BB
:1005A1002407120B7BE5F0540FFFC3940A5008EFA8
:0F05B1004430120B7B8008EF44302407120B7B81
:1005C000D001D0E0221209D5EE120B7BEF120B7B8B
:0F05D00074DF120B7B7443120B7B2275F00A84CD
:0F05DF00AFF075F00A84AEF0FD430730430630ED
:1005EE00430530221209BF740C1209A8789279952E
:0F05FE007A207BC07CD3900C34120A03120B2C92
:0F060D00900C49120A1A120B2C900C5E120A5014
:0F061C00120B2C900C0A120A86120B2C12075488
:10062B00B431FA020631221209BF900DA4120A034B
:0F063B00120B2C120A3122E47E037D00900E0D6B
:10064A00120A86120B2CEE4430120B7BE41206328D
:0F065A00E4120754C0E0742A120B7BD0E0540F57
:0F06690012074FF9E4120754C0E0742A120B7BFA
:0F067800D0E0540F49F9FAE4120754C0E0742A95
:0F068700120B7BD0E0540F12074FF8E412075408
:0E069600C0E0742A120B7BD0E0540F48FBF832
:0F06A400120BC8900F00E4EAF9E493601AC399AF
:1006B3006009A3A3E49360100D80ECA3EBF8E4932B
:1006C300C398602CA30D80DF7D001209BF900DCD70
:0F06D300120A03120B2C120B8E1209BFE41EEE3B
:0E06E200601C900DE0120A03120B2C120B8EFE
:1006F0000206471209BF900DF1120B2C12071822A7
:0F0700001209BF900DFE120A03120B2C80FE226D
:0F070F00242323232323232322120A1ABD0005A8
:10071E00900E1A801EBD0105900E238016BD020597
:10072E00900E2B800EBD0305900E328006BD04097F
:10073E00900E40120B2C120B8E22C0007820D0008F
:10074E002223232323227590FF75900FE590540FDB
:0F075E00B40FF6120BF9E590540FB40F0280F4AC
:0F076D00120BF9E590540FB40F0280E87590EF6E
:0E077C00E590540FB40F217590DFE590540FF7
:10078A00B40F1C7590BFE590540FB40F1775907F86
:0F079A00E590540FB40F12020761900F0B800F00
:1007A900900F0F800A900F138005900F1780001388
:1007B9005003A380FAE493F590227590FF75900F8A
:0F07C900120BF9E590540FB40F0280497590EFB1
:0E07D800E590540FB40F217590DFE590540F9B
:1007E600B40F1C7590BFE590540FB40F1775907F2A
:0F07F600E590540FB40F1202081E900F0B800FE6
:10080500900F0F800A900F138005900F178000132B
:100815005003A380FAE493F59022C000D2B078206B
:10082500747F120B9E120BC8120BC874FF120B9E1D
:0E083500120BC8120BC8747F120B9E120BC858
:10084300120BC874FF120B9E120BC8120BC8747FD5
:0E085300120B9E120BC8120BC874FF120B9EE4
:0E086100120BC8120BC8D000C2B022120A033C
:0F086F00900E46120B2C120A1A900E58120B2CD8
:10087E00120B8E1209BF120B8E221209BF120A1A08
:0F088E00900E63120B2C120A50900E78120B2C46
:0E089D00120A86900E8D120B2C22C2B1C2B22E
:1008AB00120BD474381209A8120BF974381209A858
:1008BB00120BF9740C1209A8120BF974011209A886
:1008CB00120BEC74061209A822784F7400120B9EBF
:1008DB00784D7400120B9E784F7403120B9E784068
:1008EB007400120B9E78417400120B9E78427400B8
:0E08FB00120B9E78437400120B9E784474001A
:0E090900120B9E78457400120B9E7846740007
:0E091700120B9E78477400120B9E78487400F5
:0E092500120B9E78497400120B9E784A7400E3
:0E093300120B9E784B7400120B9E784F7400CE
:0F094100120B9E784D7400120B9E22C000C0E076
:10095000784D7405D2B0F2C2B0D2B0E2C2B0740425
:0F096000D2B0F2C2B0120BF980E8D0E0D0002282
:0F096F00C000C0E0784D7405D2B0F2C2B0D0E045
:0F097E00D000D2B0E2C2B0540FC0E0784D740484
:0F098D00D2B0F2C2B0D0E022D2B0F2C2B0C0E01D
:10099C00784D7404D2B0F2C2B0D0E022C0E0C000F6
:1009AC007880C2B2C2B1D2B0F2C2B0120BF9D0E0B0
:0F09BC00D00022C000C0E074011209A8120BEC99
:1009CB00740C1209A8D0E0D00022C000C0E0C2B263
:1009DB00A88074901209A8120BECD2B2D0E0D00010
:0E09EB0022C000C0E0C2B2A88074801209A829
:1009F900120BECD2B2D0E0D00022C000C0E0C2B2EB
:100A0900A88074801209A8120BECD2B2D0E0D000F1
:0E0A190022C000C0E0C2B2A88074C01209A8BA
:100A2700120BECD2B2D0E0D00022C000C0E0C2B2BC
:0F0A3700A88074C01209A8120BEC740F1209A842
:100A4600120BF9D2B2D0E0D00022C000C0E0C2B290
:100A5600A88074941209A8120BECD2B2D0E0D00090
:0E0A660022C000C0E0C2B2A88074941209A899
:0F0A7400120BEC740F1209A8120BF9D2B2D0E0DA
:100A8300D00022C000C0E0A880C2B274D41209A86A
:0F0A9300120BEC740C1209A8120BF9D2B2D0E0BE
:100AA200D00022C000C0E0A880C2B274D41209A84B
:0F0AB200120BEC740F1209A8120BF9D2B2D0E09C
:100AC100D00022C000C0E0A880C2B274A11209A85F
:100AD100120BECD2B2D0E0D00022C000C0E0A8805E
:0F0AE100C2B21209A8120BECD2B2D0E0D00022A0
:100AF000C000C007120754120B7BFF94405005EF53
:0E0B0000540F8005EF540F240923232323F8FC
:100B0E00120754120B7BFF94405005EF540F8007D1
:100B1E00EF540F2409540F48F9D007D00022E49364
:100B2E006006120B7BA380F622C0E0C001E0F5F058
:0F0B3E0054F003030303FFC3940A5008EF44303D
:0F0B4D00120B7B8008EF44302407120B7BE5F07E
:100B5C00540FFFC3940A5008EF4430120B7B8008EB
:0F0B6C00EF44302407120B7B7420D001D0E0221D
:100B7B00C000D2B2C2B17880D2B0F2120BF9C2B0BF
:0F0B8B00D00022120BC8120BC8120BC8120BC8D5
:100B9A00120BC822D2B0F2C2B022C000C0E0784D17
:100BAA007405D2B0F2C2B0D0E0D00022C000C0E0DA
:100BBA00784D7404D2B0F2C2B0D0E0D00022C003A3
:0E0BCA007B61120BF9DBFBD00322C0037B32F0
:0F0BD800120BF9DB07D00322C0037B0A120BF9C3
:0F0BE700DBFBD00322C0037405FB120BF9DBFB11
:0F0BF600D00322C003C0047B217C0EDCFEDBFA9F
:100C0500D004D00322205072657373205B315D20C0
:100C1500746F204C6F67696E200020202020204CC7
:100C25006F67676564204F75742020202020004F72
:100C35002D2D2D2D2D2D2D2D2D2D2D2D2D2D2D2DDF
:100C45002D2D4F007C202020476F6265726C696EE8
:100C550067204F532020207C004F2D2D2D2D2D2D2D
:100C65002D2D2D2D2D2D2D2D2D2D2D2D4F003420C0
:100C75004469676974732028787878786829003220
:100C85002044696769747320287878682900456E5F
:100C950074657220426C6F636B2053697A650045F9
:100CA5006E74657220536F7572636520416464725A
:100CB5002E00456E74657220446573742E20416460
:100CC50064722E004D6F766520436F6D706C657490
:100CD500652E00456E74657220536F7572636520CD
:100CE500416464722E00456E74657220426C6F63B8
:100CF5006B2053697A6500456E746572204465738F
:100D0500697265642076616C75650050726F6772F3
:100D1500616D20457869746564005B305D4E65786A
:100D250074204164647220005B315D4578697420EC
:100D350000456E7465722076616C756520746F2050
:100D450046696E6400466F756E642076616C7565E4
:100D55002040200042797465204E6F7420466F75DF
:100D65006E6400456E64206F66204D656D6F727907
:100D7500202846466829005B325D20457869740065
:100D85005B305D204E65787420005B315D205072CC
:100D950065762E2020205B325D20457869740045FC
:100DA5006E74657220342D44696769742050494E0C
:100DB5003A20005B415D205375626D697420205BAC
:100DC500445D205265646F00496E636F727265639E
:100DD500742050617373636F646500506C65617353
:100DE500652054727920416761696E0057656C63AF
:100DF5006F6D65204261636B0053797374656D2077
:100E05004C6F636B65642E005472696573204C6585
:100E150066743A20004D69636861656C2100436F13
:100E25006C6C696E210052696C6579210050726F96
:100E3500662E2053686172696621004A65666621DF
:100E4500004D69636861656C20476F6265726C6906
:100E55006E67004345454E203433333020005B42F6
:100E65005D204D6F7665202020205B445D20447514
:100E75006D70005B455D2045646974202020205B12
:100E8500465D2046696E64005B315D204C6F676F7F
:100E9500757420205B375D2037536567005B52759D
:100EA5006E74696D655D20005B54656D705D200035
:100EB5004D6F76652053656C65637465642E0044DB
:100EC500756D702053656C65637465642E004564AB
:100ED50069742053656C65637465642E0046696E9C
:100EE500642053656C65637465642E0037536567CC
:100EF5002053656C65637465642E00970134251174
:100F0500114330607300313233413435364237385E
:060F15003943463045445B
:00000001FF
