:100000008000114C31023153784511D84430319E73
:10001000784411D84430319E743A319E784311D8D7
:100020004430319E784211D84430319E743A319E2A
:10003000784111D84430319E784011D84430319EF7
:100040007420319E31B031B080BC80FE784F740096
:1000500031BA784D740031BA784F740331BA7840B0
:10006000740031BA7841740031BA7842740031BA00
:100070007843740031BA7844740031BA784574001A
:1000800031BA7846740031BA7847740031BA78488A
:10009000740031BA7849740031BA784A740031BAC0
:1000A000784B740031BA784F740031BA784D7400CF
:1000B00031BA22C000C0E0784D7405D2B0F2C2B0AF
:0F00C000D2B0E2C2B030E10B7404D2B0F2C2B0E1
:1000CF0031ED80E6D0E0D00022D2B0E2C2B0540FC2
:1000DF00C0E0784D7404D2B0F2C2B0D0E02211B3B8
:1000EF00D2B0F2C2B0C0E0784D7404D2B0F2C2B058
:0F00FF00D0E02231CB7438312131ED743831210A
:10010E0031ED740F312131ED7401312131E174067D
:10011E00312122C0E0C0007880C2B2C2B1D2B0F2AA
:10012E00C2B031EDD0E0D000227401312131E12294
:10013E00C000C0E0C2B2A88074CD312131E1D2B28C
:0F014E00D0E0D00022C2B2A88074DD312131E1AF
:10015D00D2B222C2B2A8807480312131E1D2B22252
:0F016D00C2B2A88074C0312131E1D2B222C2B235
:0F017C00A8807494312131E1D2B222A880C2B29E
:10018B0074D4312131E1D2B222E4936005319EA3C4
:10019B0080F722C000D2B2C2B17880D2B0F231E186
:0F01AB00C2B0D0002231C031C031C031C031C02C
:1001BA00D2B0F2C2B022C0037B6431EDDBFCD003C3
:1001CA0022C0037B3231EDDB07D00322C0037B0A56
:1001DA0031EDDBFCD00322C0037405FB31EDDBFCFF
:0F01EA00D00322C003C0047B217C0EDCFEDBFAB5
:1001F900D004D003224D69636861656C20476F6242
:1002090065726C696E6700423A204D6F76652044CD
:100219003A2044756D7000453A204564697420465A
:100229003A2046696E640052756E74696D653A20AC
:100239000054656D70657261747572653A2000319C
:0F02490032334134353642373839434630454435
:00000001FF
