:0F000000020003116F7810E275F005EE3103EF87
:10000F00310374FA312B74FA312B74FA312B74FAE1
:0F001F00312BC2B2C0E0C000D2B078807401F2C1
:10002E007402312BD000D0E0C0E0C000D2B0788096
:10003E007481F27402312BD000D0E00105FE540F12
:10004E004430C0E0C3943AD0E040022407FFEEC42F
:10005E00540F4430C3C0E0943AD0E040022407FE6F
:0F006E0022C2B1C2B27432312BC0E0C000D2B096
:0F007D0078807438F27402312BD000D0E0311942
:0F008C00C0E0C000D2B078807438F27402312B1B
:10009B00D000D0E03119C0E0C000D2B07880740F2E
:0F00AB00F27402312BD000D0E03119C0E0C00058
:0F00BA00D2B078807401F27402312BD000D0E004
:0F00C9007403312BC0E0C000D2B078807406F20F
:1000D8007402312BD000D0E022D2B27A00EA0A931F
:1000E800B400028015C0E0C000D2B07880F5E0F21C
:0F00F8007402312BD000D0E080E322D2B2C0E0FE
:0F010700C000D2B07880F5E0F27402312BD00046
:10011600D0E022C000C001790278A400D8FDD9F948
:0B012600D001D000223119D5E0FB22EF
:00000001FF
